:020000040800F2
:10000000B8220020010100081F170008E3140008AF
:100010001D170008A7020008ED2D000800000000D1
:10002000000000000000000000000000A51A000809
:10003000ED02000800000000A31A0008BD1A000825
:100040001B0100081B0100081B0100081B01000820
:100050001B0100081B0100081B0100081B01000810
:100060001B0100081B0100081B0100081B01000800
:100070001B0100081B0100081B0100081B010008F0
:100080001B0100081B0100081B0100081B010008E0
:10009000852D00081B0100081B0100081B0100083A
:1000A0001B0100081B0100081B0100081B010008C0
:1000B000691B00081B0100081B0100081B01000848
:1000C0001B0100081B0100081B0100081B010008A0
:1000D0001B0100081B0100081B0100081B01000890
:1000E0001B0100081B0100081B010008DFF80CD0F1
:1000F00000F056F80048004781300008B822002080
:100100000648804706480047FEE7FEE7FEE7FEE7B1
:10011000FEE7FEE7FEE7FEE7FEE7FEE7211B00083D
:10012000ED00000840EA01039B0703D009E008C97D
:10013000121F08C0042AFAD203E011F8013B00F8AC
:10014000013B521EF9D27047D2B201E000F8012BF8
:10015000491EFBD270470022F6E710B513460A4647
:1001600004461946FFF7F0FF204610BD00F00AB81C
:10017000034870470248001D011F8860001D70473A
:10018000A001002010B500F020F8016919B100228B
:100190000261884701E080688047AFF3008000007B
:1001A000064C074D06E0E06840F0010394E80700C4
:1001B00098471034AC42F6D3FFF79CFFC0360008D6
:1001C000E036000810B5AFF3008070B5FFF7D2FF3E
:1001D00004680546A4B9202002F0A8FF040011D04D
:1001E000094900202C60C4E900010849A16020737E
:1001F000206160610649A06109B100F00BF8E0617F
:10020000204670BDAFF3008000000000C50100086B
:100210000000000010B5882002F088FF002801D0FF
:100220000021017010BD802902D808B1017809B100
:1002300000207047012100F8081B704718B100F139
:100240000802914201D000207047002101707047E0
:1002500070B58C1810F8015B15F0070301D110F888
:10026000013B2A1106D110F8012B03E010F8016BB5
:1002700001F8016B5B1EF9D12B0705D40023521E38
:100280000DD401F8013BFAE710F8013BCB1A921CA0
:1002900003E013F8015B01F8015B521EF9D5A1429E
:1002A000D8D3002070BDFEE70020704700207047C3
:1002B00010B500220449054801F096FD04490348A1
:1002C00001F08CFD002010BDD0180020440A002051
:1002D000E814002010B50146034801F07FFD0248F4
:1002E00001F060FD002010BD440A002070477047F7
:1002F00070B5044600F0F6F80546601C02D00448CC
:100300000078044400F0EEF8401BA042FAD370BD20
:10031000700000202DE9F84FDFF890A100220AF1CB
:10032000040B144601274FF00F090BF1040E00BF18
:100330000B6807FA04F52B40AB4274D1DFF870C1AB
:100340004E68A6EB0C0866452BD00DDC032E34D08E
:1003500005DC36B3012E19D0022E2FD11BE0112E51
:1003600016D0122E2AD119E0B8F5881F19D006DC54
:10037000B8F5803F15D0B8F5801F1FD111E0B8F552
:10038000001F0ED0B8F5041F18D10AE0CA6815E0A6
:10039000CA68121D12E0CA6808320FE0CA680C323F
:1003A0000CE08A682AB1012A4FF0080203D04561A7
:1003B00004E0042202E0056100E00022FF2B01D8E6
:1003C000064601E000F104064FEA840501D9A5F1D3
:1003D0002005D6F800C009FA05F82CEA080C02FA44
:1003E00005F54CEA050CC6F800C04D68ED0057D580
:1003F000304DAE6946F00106AE61AD6924F00306EA
:1004000005F0010500952C4D06EB050CDCF80850B5
:10041000A6074FEA167809FA08F6B543274EB04208
:1004200002D1002610E03BE0254EB04201D101266A
:100430000AE0244EB04201D1022605E0224EB0422D
:1004400001D1032600E0042606FA08F62E43CCF874
:1004500008604D68DAF80060ED03554601D51E438B
:1004600000E09E432E604D68DBF80060AD035D4602
:1004700001D51E4300E09E432E604D68DEF800600B
:10048000ED02754601D51E4300E09E432E604D6887
:10049000AD020E4D2E6801D51E4300E09E432E6036
:1004A000641C102CFFF444AFBDE8F88F0004014039
:1004B000000011100010024000000140000801403F
:1004C000000C014000100140001401400C040140E8
:1004D000C2684A40C26070470AB1016170470904AE
:1004E000FBE70000014880687047000070000020B2
:1004F00002488168027811448160704770000020D2
:10050000074810B5016841F010010160032000F0B8
:1005100073F8002000F006F800F024F8002010BD69
:100520000020024070B50D4D04464FF47A712878D2
:10053000B1FBF0F00A490968B1FBF0F000F016FEDB
:1005400048B9102C07D200222146501E00F034F882
:1005500000206C6070BD012070BD000070000020A4
:100560007C0000200C4808B5816941F001018161DF
:10057000816901F001010091C16941F08051C161BF
:10058000C06900F0805000900448416821F0E061AB
:1005900041F00071416008BD0010024000000140C0
:1005A00000F01F02012191404009800000F1E0208D
:1005B000C0F8001170470000F0B40E4B1B680C46E9
:1005C000C3F30223C3F10705042D00D90425191D27
:1005D000072901D2002300E0DB1E012606FA05F1FF
:1005E000491E214099409E40761E16403143F0BC82
:1005F00001F096B80CED00E0064900F0070208682B
:100600004FF6FF03184040EA0220034A10430860F7
:10061000704700000CED00E00000FA0510B50C0674
:1006200005D501F07F0100EB4110283003E000EB1D
:10063000411000F50A7099B232B101228272C18074
:10064000190C0181002010BD002282728180F9E71F
:10065000704700EB4112D0F85C04D26B01F092BD00
:1006600000EB4112D0F85C04D2F83C2201F0DFBD6F
:1006700010B504460A460B0601F07F0004EB40115A
:1006800001D5283101E001F50A710870D0094870E0
:1006900094F82804012809D0012084F8280420684F
:1006A00002F08CF9002084F8280410BD022010BD4F
:1006B00070B50A460446090602F07F0003D504EB34
:1006C0004011283103E004EB421101F50A710025C5
:1006D0008D700870D009487094F82804012809D05A
:1006E000012084F82804206802F016FA84F82854BF
:1006F000002070BD022070BD01F00F0100EB411021
:10070000B0F8440280B2704770B504460D460E063C
:1007100001F07F0004EB401101D5283101E001F523
:100720000A710870E80948700A61CB7094F82804CF
:10073000012809D0012084F82804206802F00EF86E
:10074000002084F8280470BD022070BD70B50C46EE
:1007500001F07F0500EB4511C1E98F230022C1F8AC
:10076000442281F8292281F8285201F50A71620693
:10077000006802F02BFA002070BD70B50D460446EB
:10078000090605F07F0003D504EB4011283103E092
:1007900004EB451101F50A7101228A700870E8091D
:1007A000487094F82804012807D084F82824206889
:1007B00002F0E7F9680602D006E0022070BD04F2FC
:1007C0002C41206802F0A6F9002084F8280470BDAE
:1007D00070B50C4601F07F0500EB4511C1E90F2310
:1007E00000224A64012281F8292001F8285F62066C
:1007F000006802F0EBF9002070BD10B504460068F7
:1008000002F0C6FA000402D5204600F099FF2068E5
:1008100002F0BEFA40050CD5206830F8441F21F4E0
:1008200080610180204600F0EDF80021204600F0B4
:1008300004F9206802F0ACFA400405D5206830F8CD
:10084000441F21F480410180206802F0A1FA800455
:1008500005D5206830F8441F21F40051018020683C
:1008600002F096FAC00414D5206830F8401F21F039
:1008700004010180206830F8401F21F00801018048
:10088000204600F0D2F8206830F8441F21F480514F
:100890000180206802F07CFA00051AD5206830F843
:1008A000401F41F008010180206830F8441F21F406
:1008B00000610180206830F8401F41F00401018090
:1008C000206802F065FAC043C00402D5204600F05B
:1008D000E9F8206802F05CFA800508D5206830F855
:1008E000441F21F400710180204600F0A2F8206826
:1008F00002F04EFAC00505D5206830F8441F21F4F7
:100900008071018010BD00002DE9F04186B0040027
:100910004FF0000504D094F82904002620B108E027
:10092000012006B0BDE8F08184F82864204600F07C
:100930004BF8032084F82904206802F0E4F804F15D
:100940001001142288466846FFF7ECFB94E80F007C
:1009500002F032F80021206802F02DFA5FF0010762
:1009600004EB451080F8297000F8285F8581C67077
:10097000066146616D1C86610F2DF1D35FF00000AA
:1009800004EB401181F8296281F82802888681F8F9
:100990002B62C1F83862C1F83C62401CC1F8406269
:1009A0000F28EDD3142241466846FFF7BBFB94E8BD
:1009B0000F0002F099F884F8246084F82974206804
:1009C00002F090F80020ACE708B500680B498842B7
:1009D00012D10B48C16941F40001C161C069002214
:1009E00000F40000009011461420FFF7E5FDBDE87B
:1009F00008401420FFF7D4BD08BD0000005C004093
:100A00000010024070B5044680680125022801D01C
:100A1000FFF76DFC2946D4F85C0401F0D5FCD4F84E
:100A20005C04BDE8704001F09EBCD0F85C0401F0AD
:100A3000B9BCD0F85C0401F0BBBC10B5044690F81A
:100A4000280401280BD0012084F8280484F82410FD
:100A5000206802F0B2F9002084F8280410BD0220BA
:100A600010BDD0F85C2400F22C41104601F0B8BC57
:100A700010B5044690F82804012810D0012084F80D
:100A8000280401462046FFF7E3FD206802F028F81D
:100A9000206802F070F9002084F8280410BD0220BC
:100AA00010BD000010B50446D0F85C0401F0D7FC7E
:100AB000A069002804D00348016841F006010160E4
:100AC00010BD000010ED00E02DE9F8430546007868
:100AD000354CC00754D0E0690026C00008D4E06956
:100AE00040F08050E061E069012600F08050009005
:100AF0002E480168C90512D40168804641F480710E
:100B00000160FFF7EFFC074605E000BFFFF7EAFCD6
:100B1000C01B642823D8D8F80000C005F6D5206A89
:100B200010F4407021D0A98801F4407181421CD09A
:100B3000206A1F49012220F440700A6000220A60E6
:100B40002062C00711D0FFF7CDFC074641F288387C
:100B500008E000BFFFF7C6FCC11B414502D90320D6
:100B6000BDE8F883206A8007F4D5206A696820F41C
:100B70004070084320621EB1E06920F08050E061BF
:100B80002878800705D56068A96820F440400843AC
:100B900060602878C00605D56068E96820F48000A8
:100BA000084360600020DBE7001002400070004056
:100BB000400442422DE9F047DFF8548105460E46D5
:100BC000D8F8000000F00700B0420CD2D8F80010AE
:100BD00021F007013143C8F80010D8F8000000F0F8
:100BE0000700B0426FD128684A4C810712D54007F0
:100BF00003D5606840F4E06060602878000703D5A2
:100C0000606840F4605060606068A96820F0F0009F
:100C1000084360602878C00744D06868012816D06F
:100C20002168022816D0890700294CDA616821F072
:100C3000030101436160FFF755FC6968074641F213
:100C4000883001290ED00229814618D026E021687B
:100C50008903E9E78901E7E7FFF744FCC11B494540
:100C600001D918E081466068C0F381000128F3D102
:100C700018E000BFFFF736FCC11B49450BD8606880
:100C8000C0F381000228F5D10CE000BFFFF72AFC79
:100C9000C11B494502D90320BDE8F087606810F008
:100CA0000C0FF3D1D8F80010404601F00701B14213
:100CB0000BD9016821F0070131430160006800F0A1
:100CC0000700B04201D00120E6E72878400705D5AB
:100CD0006068E96820F4E0600843606028780007F5
:100CE00006D56068296920F4605040EAC100606060
:100CF00000F016F86168084AC1F30311515CC8405E
:100D0000064908600020FFF70DFC0020C4E7000042
:100D10000020024000100240B03600087C00002095
:100D200012A185B00FC98DE80F0014A0144A006805
:100D300004905168134801F00C03042B10D0082BC9
:100D40000ED1C1F38343C9031DF803000AD55168CE
:100D500004AAC1F34041515C0A4A5043B0FBF1F090
:100D600005B0704708494843FAE70000020304054C
:100D7000060708090A0B0C0D0E0F101001020000E7
:100D80000010024000127A0000093D002DE9F84FE2
:100D900004460078B94DC00748D06868C0F38100A8
:100DA000012807D06868C0F38100022809D168686B
:100DB000C00306D52868800338D5606800286FD046
:100DC00034E06068B0F5803F0BD010B1B0F5A02FD3
:100DD00011D0286820F480302860286820F4802012
:100DE00002E0286840F480302860606888B1FFF72E
:100DF00079FB064609E0286840F480202860F0E787
:100E0000FFF770FB801B642875D828688003F7D52E
:100E10000CE0FFF767FB064605E000BFFFF762FB4B
:100E2000801B6428F0D828688003F7D42078944E7B
:100E300080074FF001094FF000083BD5686810F0BB
:100E40000C0F07D06868C0F38100022809D16868D8
:100E5000C00306D42868800714D5206901281FD153
:100E600010E02069B0B1C6F80090FFF73BFB0746E1
:100E700005E000BFFFF736FBC01B0228C4D8286876
:100E80008007F7D52868616920F0F80040EAC100C2
:100E900028600FE0C6F80080FFF724FB074606E055
:100EA000E9E000BFFFF71EFBC01B022823D828681B
:100EB0008007F7D4207800072CD57248A169D9B1F2
:100EC000C0F80090FFF70EFB074604E0FFF70AFBAF
:100ED000C01B02280FD8686A8007F7D56A484FF40C
:100EE000FA510068B0FBF1F0009000BF0098411E7D
:100EF0000091FAD20EE080E0C0F80080FFF7F2FA2D
:100F0000074604E0FFF7EEFAC01B022875D8686AAE
:100F10008007F7D42078400760D5E8690027C00033
:100F200008D4E86940F08050E861E869012700F0E2
:100F30008050009055480168C90513D40168834664
:100F400041F480710160FFF7CDFA824606E000BFF0
:100F5000FFF7C8FAA0EB0A0064284ED8DBF80000BF
:100F6000C005F5D5E06801280AD008B1052813D0DE
:100F7000286A20F001002862286A20F0040002E0BC
:100F8000286A40F001002862E06841F2883B98B18D
:100F9000FFF7A8FA82460BE0286A40F004002862B6
:100FA000EEE700BFFFF79EFAA0EB0A0159455AD8B9
:100FB000286A8007F6D50CE0FFF794FA824605E030
:100FC000FFF790FAA0EB0A0159454CD8286A800730
:100FD000F6D41FB1E86920F08050E861E06988B379
:100FE0006968C1F38101022945D00228C6F86080F2
:100FF00004D0FFF777FA044638E034E0FFF772FADE
:10100000074604E0FFF76EFAC01B02282BD82868B9
:101010008001F7D4206AB0F5803F05D16868A168E7
:1010200020F4003008436860D4E908010843696887
:1010300021F4741108436860C6F86090FFF752FA13
:10104000044606E015E000BFFFF74CFA001B02283B
:1010500009D828688001F7D50BE000BFFFF742FAF6
:10106000001B022802D90320BDE8F88F2868800100
:10107000F4D40020F8E70120F6E700000010024059
:1010800000004242800442427C0000200070004088
:1010900070B5040005D00025A56294F8510010B188
:1010A00004E0012070BD204600F034F8022084F8EE
:1010B00051002068016821F040010160D4E901017C
:1010C0000843D4E903121143084361690843218BA3
:1010D00001F400710843E1690843216A0843A16AE9
:1010E000084321680860A069042101EA1040616A90
:1010F0000843216848602168E06A08612068C16986
:1011000021F40061C1616565012084F8510000206F
:1011100070BD000000B585B00021009101910291E1
:10112000039100680E49884217D10E48C16941F405
:101130008041C161C16901F480410491816941F03C
:10114000080181618069694600F0080004904FF44D
:10115000204000900448FFF7DDF805B000BD000016
:101160000038004000100240000C014010B5401E45
:10117000B0F1807F01D3012010BD4FF0E024606109
:101180000F21601700F0CCFA0020A0610720206139
:10119000002010BD7047704730B590F83C20012A00
:1011A00020D0012280F83C20022380F83D300368E3
:1011B0005C6824F070045C6003685C680D682C4314
:1011C0005C6003689C6824F080049C6003689C68F1
:1011D00049680C439C6080F83D20002180F83C1059
:1011E000084630BD022030BD10B5040003D094F88D
:1011F0003D0010B107E0012010BD002084F83C0044
:10120000204600F00DF8022084F83D00211D2068E2
:1012100000F0B0FC012084F83D00002010BD00006B
:1012200008B50068B0F1804F12D10A48C16941F099
:101230000101C161C069002200F00100009001219C
:101240001C20FFF7B9F9BDE808401C20FFF7A8B93A
:1012500008BD0000001002400168CA6842F00102A7
:10126000CA600068016841F0010101600020704718
:1012700070B5044690F83C00012817D0012584F889
:101280003C50022084F83D002068826822F07702FA
:1012900022F47F4282600868502837D00DDC202875
:1012A00059D005DC88B3102841D151E0022070BD2F
:1012B000302853D040283AD13FE060282ED0702803
:1012C0000BD0B0F5805F03D0B0F5005F2FD110E0F8
:1012D0002068816821F0070115E0CB68D1E9012180
:1012E000206800F07DFC2168886840F07700886005
:1012F0001DE0CB68D1E90121206800F071FC206875
:10130000816841F48041816011E01EE0CA6849684B
:10131000206800F077FC5021206806E0CA68496820
:10132000206800F080FC6021206800F063FC84F8F5
:101330003D50002084F83C0070BDCA6849682068B0
:1013400000F060FC40212068EFE700212068ECE716
:1013500010212068E9E720212068E6E73021206895
:10136000E3E7704770B50446006801694FF0000577
:10137000C943890715D4C168C943890711D4E91E37
:10138000016101202077206880698007204602D013
:10139000FFF7E7FF04E000F098F8204600F096F829
:1013A000257720680169C943490717D4C168C94333
:1013B000490713D46FF004010161022020772068EF
:1013C000806910F4407F204602D0FFF7CAFF04E096
:1013D00000F07BF8204600F079F825772068016955
:1013E000C943090716D4C168C943090712D46FF06D
:1013F00008010161042020772068C0698007204629
:1014000002D0FFF7AEFF04E000F05FF8204600F0E6
:101410005DF8257720680169C943C90617D4C168FA
:10142000C943C90613D46FF0100101610820207769
:101430002068C06910F4407F204602D0FFF791FF7A
:1014400004E000F042F8204600F040F825772068DC
:101450000169C943C90708D1C168C943C90704D193
:10146000891E0161204600F033F820680169C943F4
:10147000090609D4C168C943090605D46FF0800183
:1014800001612046FFF786FE20680169C9434906CD
:1014900009D4C168C943490605D46FF04001016110
:1014A000204600F01DF820680169C94389060BD465
:1014B000C168C943890607D46FF020010161204645
:1014C000BDE87040FFF767BE70BD70477047000011
:1014D0000249884201D101F077BE70470402002022
:1014E0007047FEE7002802D0006801F024BD704775
:1014F000002802D0006801F075BD7047002802D0B6
:10150000006801F0EFBC70471CB5CDE900124388BC
:101510000288011D0248406800F004F81CBD00006C
:10152000000000207CB50028DDE9064504D00068F5
:10153000CDE9004501F020FD7CBD0000F0B50023A1
:101540000A24302537261F4611E000BFB4EB107F78
:1015500002D905EB107C01E006EB107C01F813C00A
:1015600001EB430C00015B1C8CF80170DBB2934271
:10157000ECD3F0BD2DE9F04385B000242D48009454
:10158000019402940394816941F0100181618169A1
:1015900001F010010491816941F0200181618169AC
:1015A00001F020010491816941F0040181618169A8
:1015B00001F004010491816941F0080181618069B1
:1015C0001D4E00F008004FF40055049000222946FB
:1015D0003046FEF781FFDFF8648000223E2140465E
:1015E000FEF77AFFDFF858904FF4FC770022394677
:1015F0004846FEF771FF0220CDE902400095012523
:10160000694601953046FEF785FE3E200326CDE96A
:101610000005CDE9024669464046FEF77BFE00978D
:101620000396CDE9015469464846FEF773FE05B0BE
:10163000BDE8F083001002400010014000080140A6
:10164000000C01400B480A494FF480620160002100
:10165000C0E90112C16052100161C0E90512C16107
:101660000162416281620A21C162FFF711BD00007F
:1016700000380040AC01002010B586B000241148AD
:10168000009401940294039404944FF080410594D3
:1016900001604FF4E151C0E90114C821C0E903140D
:1016A0008461FFF7A1FD4FF4805000906946054822
:1016B000FFF7DEFD049404A902480594FFF76CFDD2
:1016C00006B010BD0402002010B500220F491048DA
:1016D00000F031FD08B1FEF70AFE0E490C4800F09B
:1016E000E4FE08B1FEF703FE0B49094800F06EFB6B
:1016F00008B1FEF7FCFD064800F024FF002803D0E7
:10170000BDE81040FEF7F3BD10BD00001000002042
:10171000440A00206001002060000020FEE77047BE
:101720000907090E002806DA00F00F0000F1E0209A
:1017300080F8141D704700F1E02080F80014704715
:101740002DE9FC5F4FF000080446ADF80480ADF8C9
:10175000008048F60F7B4FF002094FF4806692E15B
:10176000BDF8041011F00F072BD030F82710ADF89A
:101770000010BDF80010090478D530F8272040F695
:101780008F710A4020F8272004EB471595F83202A4
:1017900005F50A750028206869D0297830F82120DD
:1017A00052047DD5B0F8503009EBC101194406EB65
:1017B0004101415AC1F309015FEA010A71D0EA8887
:1017C000D0E0BDF80410C9062AD4018801EA0B0153
:1017D0000180206804F12805B0F850202B7809EB2F
:1017E000C301114406EB4101405AC0F30900606493
:1017F000E16B0844E06300212046FEF72AFF94F8DD
:1018000024000028ABD0A8690028A8D194F82400AF
:10181000216840F08000A1F84C0084F8248032E177
:10182000018804F50A75ADF80010BDF8001009052F
:101830001ED5B0F850302978062202EBC1011944B8
:1018400006EB4101405A04F22C41C0F30903EB615D
:10185000AA88206801F0A0FA2068018840F68F72FB
:10186000114001802046FFF7FCF80CE1A0E055E0B4
:10187000BDF800100904D2D5028840F68F710A40E5
:1018800002802068B0F850302978062202EBC101AE
:10189000194406EB4101405A83059B0DEB6101E0C1
:1018A00051E063E008D0AA886969206801F074FA01
:1018B000E96968690844686100212046FEF7D0FEA6
:1018C0002068B0F85010891D06EB410101442869D9
:1018D0003E280CD9C0F34F12C00601D1521E92B25D
:1018E0004FF6FF7000EA822040F4004009E0C0F3A8
:1018F0004F02C00701D0521C92B24FF6FF7000EAAF
:1019000082200860216808884BF68F72104080F4AE
:10191000405048F2800210430880B4E0B0F85020F4
:101920002B78062101EBC301114406EB4101415A1A
:10193000C1F309015FEA010A24D0AA885346696904
:1019400001F02AFA1EE0B0F85020062303EBC10193
:10195000114406EB4101415AC1F309015FEA010A52
:1019600004D02A895346696901F016FA297820685B
:1019700030F8213048F68F72134048F2C00213430A
:1019800020F82130E96901EB0A00E861696901EB9F
:101990000A026A61AB6913B12869504504D92978F4
:1019A0002046FEF75DFE03E029782046FEF7CEFED6
:1019B000BDF80000000666D5206804EB471530F836
:1019C000271001EA0B0120F8271095F8320028357E
:1019D0000028206812D0297830F82120B0F8503043
:1019E00052061ED509EBC101194406EB4101405ACC
:1019F00083059B0DEB6124D0EA881EE0B0F85030DF
:101A00002A7809EBC201194406EB4101405A8305CB
:101A10009B0DEB6121D0AA886969206801F0D3F998
:101A20001BE0062202EBC101194406EB4101405ABA
:101A300083059B0DEB6104D02A896969206801F058
:101A4000C2F92978206830F8212048F68F731A40AF
:101A50004CF280031A4320F821202068B0F850206F
:101A60002B7809EBC301114406EB4101405AC0F346
:101A70000900E86169690A186A612978AB6920463A
:101A800063B1FEF7A5FE2068B0F84410ADF804106D
:101A900009043FF565AE0020BDE8FC9FFEF7D9FDC7
:101AA000F1E77047704700001AB103484068FFF73C
:101AB00025BD00BFFDE7000000000020FEF718BDB7
:101AC00030B593B028216846FEF745FB14210AA8DB
:101AD000FEF741FB002401200F941094119401049F
:101AE00012948DE8130004904FF4E010CDE9081033
:101AF000022507956846FFF749F90F20CDE90A0549
:101B00006802CDE90C4002210AA80E94FFF752F8B2
:101B100010200F9012940FA8FEF7D6FF13B030BD1F
:101B20000D48016841F00101016041680B4A114014
:101B3000416001680A4A11400160016821F4802176
:101B40000160416821F4FE0141604FF41F01816092
:101B50000449C00308607047001002400000FFF80D
:101B6000FFFFF6FE08ED00E00148FFF7FBBB0000B9
:101B700004020020F0B50268164B174C174D4FF0C9
:101B80008047984205D0B84203D0A04201D0A84275
:101B900003D122F070064A683243984205D0B84219
:101BA00003D0A04201D0A84203D122F44074CA68F5
:101BB000224322F080044A69224302608A68C2629A
:101BC0000A688262984201D1096901630121416179
:101BD000F0BD0000002C014000040040000800405F
:101BE00010B5846842EA032224F47F440A43224366
:101BF000826010BD826822F070020A4342F0070141
:101C00008160704710B5036A046A24F0010404621D
:101C1000846924F0F00444EA021423F00A020A431F
:101C20008461026210BD10B5036A23F010030362E1
:101C30008369046A23F4704343EA023224F0A00368
:101C400043EA01118261016210BDD0F8180220B18F
:101C50000021C0F81412084670470220704770B582
:101C60000546D0F8184200F017FBC4F80C02D5F86E
:101C7000180248B1D5F81C12D4F80402CA6804F559
:101C800003719047002070BD022070BD70B50446FE
:101C90000025812100F06DFA0121204600F069FA4B
:101CA0008221204600F065FAD4F8180250B1D4F829
:101CB0001C0204F5067440688047206800F048FD67
:101CC00000202060284670BD10B5D0E9864159B18A
:101CD00094F80002FF2807D08B6894F8012221466F
:101CE0009847FF2084F80002002010BD0A210180DF
:101CF0000048704788000020432101800048704759
:101D0000D800002043210180004870479400002043
:101D100043210180004870471C0100202DE9F0415B
:101D20000446007C00254FF4007670B34023022265
:101D30008121204600F002FB40230222012120469F
:101D400000F0FCFA082303228221204600F0F6FA74
:101D50004FF4077000F0FEFCC4F81802F0B107461B
:101D6000D4F81C02006880470020C7F81402C7F8A6
:101D70001802207CD7F8042290B14023012120468C
:101D800000F0E8FA2846BDE8F081FFE7334602227A
:101D90008121204600F0D2FA3346CEE70125F1E753
:101DA0003346EBE710B5D0F8181269B1027C002A6F
:101DB000D1F8042205D04023012100F0CBFA002005
:101DC00010BD4FF40073F7E7022010BD0246022059
:101DD000002902D00020C2F81C127047D0F8180267
:101DE000C0F8041200207047D0F81802C0F8102282
:101DF000C0F808120020704770B50646D0F8185297
:101E000008780C4610F0600121D0202927D1E28803
:101E1000AAB10006607807D5D6F81C128B6829464F
:101E20009847E288294617E085F80002A07985F8EE
:101E30000102E2882946304600F038F80FE0D6F873
:101E40001C12607800228B682146984707E0607872
:101E50000A2804D103490122304600F041F800204D
:101E600070BD00008400002010B5D0F81422526824
:101E70009047002010BD134610B50A46002100F01F
:101E800069FA002010BD134610B50A46002100F083
:101E9000EFFA002010BD10B50446802100F0CDFA05
:101EA0002046BDE81040002100F0C7BA10B503235A
:101EB000C0F80821C0F8F431C0F80C2113460A46D6
:101EC000002100F047FA002010BD10B505210023C5
:101ED000C0F8F4111A46194600F03CFA002010BD73
:101EE00010B502238261C0F8F431C26113460A467C
:101EF000002100F0BDFA002010BD10B50421002320
:101F0000C0F8F4111A46194600F0B2FA002010BDCC
:101F100010B50A46024903A000F0DEF8004810BDE3
:101F2000E812002043444320436F6E666967000057
:101F300012200880004870473000002010B50A4683
:101F4000024903A000F0C8F8004810BDE8120020C4
:101F500043444320496E7465726661636500000006
:101F600004200880004870472C00002010B50A4665
:101F7000024903A000F0B0F8004810BDE8120020AC
:101F800053544D6963726F656C656374726F6E69EB
:101F90006373000010B50A46024903A000F09CF8E4
:101FA000004810BDE812002053544D3332205669CA
:101FB000727475616C20436F6D506F727400000015
:101FC00010B51A2008800A480168001D0468001D29
:101FD0000068081809D008220649FFF7AFFA05493A
:101FE000042210312046FFF7A9FA0248801E10BDD6
:101FF000E8F7FF1F46000020F8B5044648880D4664
:10200000010A08294BD2DFE801F04A0409174A4ABD
:102010004048D4F81012207C0A6832E0207C022666
:102020000028D4F8140205D0C16A684688470146E2
:10203000467041E0816AF8E7C0B206282FD2DFE897
:1020400000F003080D12171CD4F81012207C4A6807
:1020500017E0D4F81012207C8A6812E0D4F810122D
:10206000207CCA680DE0D4F81012207C0A6908E0D0
:10207000D4F81012207C4A6903E0D4F81012207CB6
:102080008A6969469047014616E0207C38B9D4F841
:102090001402416B68468847F5E7207C20B1294649
:1020A0002046FFF7F8FEF8BDD4F81402016B68462D
:1020B0008847014607204870BDF800000028F2D08C
:1020C000EA88002AEFD0824200D90246ADF800200B
:1020D0002046FFF705FFF8BD70B5002300281DD08E
:1020E0000446002502E06D1CEDB2641C2678002E2B
:1020F000F9D1022404EB45041480CC545B1C032268
:10210000CA5400245B1C06E0CA545B1CDAB28C542F
:10211000521CD3B2401C0278002AF5D170BD0100D8
:102120004FF0000004D0012901D0022901D0022083
:1021300070470120704710B580B1D0F8143213B148
:102140000023C0F8143209B1C0F81012012180F840
:10215000FC11027000F0A4F8002010BD022010BD98
:1021600010B5D0F82002FEF7A3FABDE81040FFF743
:10217000D6BF10B5D0F82002FEF77AFABDE81040BD
:10218000FFF7CDBF2DE9F0411746044641B1D4F821
:10219000140242698AB394F8FC01032842D043E058
:1021A000D4F8F411002504F11400022933D1D0E948
:1021B00002639E4207D9F31A83609AB239462046D9
:1021C000FFF761FE12E04068B0FBF3F103FB110181
:1021D000A1B9984212D3D4F8F81188420ED2002245
:1021E00011462046FFF74FFEC4F8F85100231A4667
:1021F0001946204600F0AEF80DE012E0D4F81402C3
:10220000C16829B194F8FC01032801D12046884710
:102210002046FFF75AFE94F80002012804D184F802
:10222000005201E0204690470020BDE8F08170B5E3
:102230001546044641B1D4F8140282693AB394F8C1
:10224000FC01032824D025E0D4F8F41104F58270B1
:1022500003291FD1D0E902218A420BD9531A836086
:102260000846834200D303469AB229462046FFF728
:1022700002FE0FE0D4F81402016929B194F8FC01C0
:10228000032801D1204688472046FFF736FE01E0AB
:1022900020469047002070BDD0F82002FEF72CBAEF
:1022A00010B504461C481D49C0F85C44C4F820021F
:1022B0000160082141600221816000218161C161CA
:1022C0000162FEF721FB08B1FEF711F80022D4F8F5
:1022D00020021823114604F50874FEF79FF95823CD
:1022E000002280212068FEF799F9C0230022812175
:1022F0002068FEF793F94FF48873002201212068CB
:10230000FEF78CF94FF48073002282212068FEF7DB
:1023100085F9002010BD0000880E0020005C004000
:102320000A06D0F8200201F07F0100EB411002D52F
:1023300090F82A00704790F82A02704710B51C46A2
:102340001346D0F820022246FEF7DEF9BDE8104021
:10235000FFF7E5BE10B5D0F82002FEF7F7F9BDE8AB
:102360001040FFF7DCBE70B5002204464023114642
:10237000FFF7E4FF40252B46002280212046C4F8C9
:102380001051FFF7DBFF0120256284F8FC01D4F82F
:10239000180228B1D4F814022179426820469047E7
:1023A000002070BD90F8FD1180F8FC1100207047EE
:1023B00010B590F8FC11032904D1D0F81412C969A2
:1023C00001B18847002010BD01740020704710B58E
:1023D000D0F82002FEF731FBBDE81040FFF79FBEAA
:1023E00070B5044600F50270054600F04AF8012079
:1023F000C4F8F401B4F80E02C4F8F80194F8080225
:1024000010F01F010AD001290DD0022910D000F0D0
:102410008001204600F011F8002070BD29462046BA
:1024200000F095F8F8E72946204600F077F9F3E741
:102430002946204600F004F9EEE710B5D0F8200256
:10244000FEF79BF9BDE81040FFF769BE10B5D0F864
:102450002002FEF70DFBBDE81040FFF760BE90F8CC
:10246000FC1180F8FD11042180F8FC110020704758
:1024700010B5D0F82002FEF7ABF9BDE81040FFF729
:102480004EBE0A7802704A7842708A78CB7802EBA6
:10249000032242800A794B7902EB032282808A79F7
:1024A000C97902EB0121C18070470246002011B1B9
:1024B000C2F8141270470220704710B5D0F81422E9
:1024C00002241AB11268904700B90024204610BDBA
:1024D00070B50E461A4D897804462970012928D80E
:1024E00094F8FC01022802D0032822D105E099B11A
:1024F0000320616084F8FC0109E091B160688842C2
:102500000AD0C1B22046FFF7AFFC297861602046AF
:10251000FFF7D3FF02280CD02046BDE87040FFF73C
:10252000ECBC022084F8FC0120466160FFF79CFCB3
:10253000F2E731462046BDE87040FFF7ACBC000032
:102540008000002010B5FFF781FF002010BD2DE9AD
:10255000F04100264B78012532460A2B43D2DFE8B2
:1025600003F03C584251420805422A27FFF744FD38
:1025700063E004468888C8B9C888B8B9887800F08C
:102580007F0794F8FC01032810D084F8FE713946C7
:102590002046FFF71CFF2046FFF7AFFC1FB10220CB
:1025A00084F8FC0149E084F8FC5146E020461AE03A
:1025B000FFF78EFF41E0CB88012B14D190F8FC315E
:1025C000022B02D0032B0ED104E08260012200F125
:1025D000080114E00122011D11E090F8FC21022AFB
:1025E00004D0032A02D0FFF756FC26E0C560D0F8DD
:1025F000041209B10321C160022200F10C01FFF7AE
:102600006FFC1AE004464888012816D1C4F8045229
:102610000BE0044690F8FC01022801D00328C5D144
:102620004888012809D1C4F80422D4F81402826829
:10263000204690472046FFF760FC3046BDE8F08119
:1026400070B50D460446287800260979C0F341107C
:10265000012806D06878A0B301281FD003283FD1F5
:1026600007E0D4F8140229468268204690470020EB
:1026700070BD94F8FC01022817D003282CD168887B
:1026800028B921B1802902D02046FFF7D6FED4F820
:102690001402294682682046904713E094F8FC0112
:1026A000022802D0032817D103E0C9B180291BD129
:1026B00016E06888A0B9480604D02046FFF750FD10
:1026C000E5E703E02046FFF718FC09E094F8FC0179
:1026D000022807D003280BD029462046FFF7DBFB52
:1026E000304670BD4806FBD02046FFF7A6FEF7E750
:1026F000080601F07F0004EB001501D5143501E058
:1027000005F582752046FFF70BFE00B10120286019
:10271000022229462046FFF7E3FBE1E770B50546B4
:1027200090F8FC010C4603280DD1207901280AD825
:10273000D5F81402826828469047E08830B92846C8
:10274000FFF7DBFB02E02846FFF7A5FB002070BD8A
:102750007047000000487047680C00202DE9F047E2
:10276000CC780A7848F68F1334B1012C6DD0022C46
:1027700008D0032C13D10BE030F822401C4044F465
:1027800000730AE030F822401C4020F8224006E0A6
:1027900030F822401C4044F4C06320F822300C780A
:1027A00030F8245048F68F72154048F280031D43DC
:1027B000254320F824508D7A48F6BF7904274BF63C
:1027C0008F7A48F2C0044CF28006EDB30D7830F8F1
:1027D00025C048F280180CEA020C4CEA080C20F8DC
:1027E00025C0CD88B0F850C025F0010591F80080D3
:1027F0000CEBC80C00EB4C0CCCF800540D89B0F875
:1028000050C025F0010591F8008007EBC807674428
:1028100000EB4707C7F800544D78002D0D7830F8CD
:1028200025704FEA47477DD0002F05DA30F8257034
:102830001740374320F825700D7830F825707F0653
:1028400008D530F8257001E024E01DE0174027434B
:1028500020F825700C7830F824501540354320F8C6
:1028600024500C7830F8242002EA09021A4320F898
:1028700024200A7830F8221001EA0A01194320F8CE
:1028800022100020BDE8F08730F822401C4044F4BC
:10289000806382E74D78F5B18D88B0F8506025F0FF
:1028A00001050F7806EBC70600EB4606C6F8005494
:1028B0000D7830F82560760605D530F8256016408D
:1028C000264320F825600A7830F8221001EA090131
:1028D00081F02001D2E78C88B0F8505024F0010438
:1028E00091F800C007EBCC073D4400EB4505C5F867
:1028F0000044B0F850400D78062707EBC5052C447E
:1029000000EB44070C694FF6FF7C07F580673E2C0F
:102910000CD9C4F34F15E40601D16D1EADB20CEA1B
:10292000852400E01EE044F4004407E0C4F34F05B2
:10293000E40701D06D1CADB20CEA85243C600C7834
:1029400030F824506D0405D530F824501540354337
:1029500020F824500A7830F8221001EA0A0181F4A4
:1029600040518BE7002F05DA30F8257017403743C8
:1029700020F825700D7830F82560760605D530F8FA
:1029800025601640264320F825600E7830F8265042
:102990001540254320F826500C7830F8242002EA10
:1029A0000A0282F440521A4320F824200A7830F8B0
:1029B000221001EA090161E7002070472DE9F04388
:1029C00091F80A8091F801C00A7848F6BF774BF673
:1029D0008F7948F2800348F2C0054CF2800648F631
:1029E0008F74B8F1000F2ED0BCF1000F30F822C068
:1029F0004FEA4C4C4ED0BCF1000F07DA30F822C041
:102A00000CEA040C4CEA060C20F822C00A7830F8D4
:102A100022C05FEA4C6C07D530F822C00CEA040CE7
:102A20004CEA050C20F822C00A7830F822502540E4
:102A3000354320F822500C7830F824203A401A43CD
:102A400020F824201BE0BCF1000F0ED030F82260EB
:102A5000760605D530F8226026402E4320F8226005
:102A60000A7830F8221039400EE030F822506D0418
:102A700005D530F822502540354320F822500A78F9
:102A800030F8221001EA0901194320F82210002031
:102A9000BDE8F083BCF1000F07DA30F822C00CEA81
:102AA000040C4CEA060C20F822C00A7830F82260A8
:102AB000760605D530F8226026402E4320F82260A5
:102AC0000E7830F8262022402A4320F826200C7861
:102AD00030F8242002EA09021A4320F82420BFE734
:102AE000002070470020704700B50121A0F8401079
:102AF0000021A0F84010A0F84410A0F8501000F0F9
:102B00003AF9002000BD30F8401F21F43D4101801A
:102B1000002070470020704730B54D780A78002DAE
:102B200048F68F7430F8225048F2800312D06D06B8
:102B300007D530F82250254048F2C004254320F83C
:102B400022500A7830F8221048F6BF74214081F0F4
:102B5000300111E06D0407D530F8225025404CF2C9
:102B60008004254320F822500A7830F822104BF6D2
:102B70008F74214081F44051194320F82210002025
:102B800030BD10B50A7848F2800352B14978002967
:102B900030F8221010D048F6BF74214081F01001A7
:102BA0000FE001884BF6BF72114081F4805181F033
:102BB00010011943018007E04BF68F74214081F426
:102BC0008051194320F82210002010BD2DE9F0415A
:102BD0000D460646896995F801C00023AA7A0227A6
:102BE00028690C4648F28008BCF1010F05D08142EB
:102BF00052D90446081AA8614FE0814203D904461D
:102C0000081AA86100E0AB617AB1287836F8201084
:102C10004906B6F8501007EBC000084406EB400028
:102C2000C0F8004412D52A8911E0A3B2AA88304620
:102C3000696900F0C8F8B6F85000297807EBC101BF
:102C4000084406EB4000C0F800441CE0EA88A3B248
:102C50003046696900F0B7F8687848F68F7110B1AE
:102C6000012807D00FE0287836F820200A4048F2E3
:102C7000C00105E0287836F820200A404CF2800197
:102C80000A4326F82020297836F8210048F6BF723A
:102C9000104080F0300067E0AB6106234FF6FF7014
:102CA0001AB1BCF1000F1BD056E0B6F850102A78CC
:102CB0003E2C03EBC202114406EB410202F5806296
:102CC00039D9C4F34F11E30632D000BF00EA8120A6
:102CD00040F4004002E000BF00EA812010603BE0C9
:102CE000B6F850102A783E2C07EBC202114406EBCE
:102CF000410202F580620BD9C4F34F115FEAC46C44
:102D000001D1491E89B200EA812141F4004108E065
:102D1000C4F34F015FEAC47C01D0491C89B200EAC8
:102D20008121116069780029BFD001290AD013E000
:102D3000491E89B2CAE7C4F34F01E307CCD0491C4E
:102D400089B2C9E7B6F85000297807EBC1010844F9
:102D500006EB4000C0F80044297836F821004BF615
:102D60008F72104080F4405040EA080026F821009D
:102D70000020BDE8F08130F8401F41F43F41018060
:102D8000002070470148FDF738BD0000880E002084
:102D9000B0F84400704700005B1C00EB42005B0889
:102DA00000F5806006D000BF30F8042B21F8022B1C
:102DB0005B1EF9D170470020704711B98021A0F83F
:102DC0004C100020704710B55B1C00EB42005B0804
:102DD00000F5806009D011F8012B5B1E11F8014B42
:102DE00042EA042220F8042BF5D110BDFEE70000D2
:102DF0002DE9F05F374F40074FEA10684FF4FC753C
:102E00007868FEF775FBDFF8D090DFF8D0B00646A3
:102E10000024BA4632489AF800200023015D01EBF5
:102E2000080036F8101006EB4000C1F30327B0F895
:102E30000002BA4201D2012700E0002743EAC7039B
:102E400001F00F07974201D9012700E00027C1F3E5
:102E5000031143EA07138A4201D2012100E0002155
:102E600043EA4111C0F303239A4201D2012300E057
:102E7000002341EA831100F00F03934201D901239B
:102E800000E00023C0F3031041EAC311824201D2E3
:102E9000012000E0002041EA00270122394648468F
:102EA000FDF71AFB25EA070100224846FDF714FB4F
:102EB000012220215F465846FDF70EFB002220210B
:102EC0003846FDF709FB641CE4B2402CA2D3BDE8F0
:102ED000F09F000000000020000C014000080140AD
:102EE0007036000870B50446807A20B10020A072C8
:102EF0000026D1B970BD0120F9E7002510E0A07AC5
:102F0000B8B10020617A54F8200006FB0151324626
:102F100030F811302946204600F024F86D1CEDB23F
:102F2000207AA842EBD8761CF6B2607AB042E4D898
:102F300070BD0120E6E770B5064600250EE00024CE
:102F400007E000232A462146304600F00BF8641CB7
:102F5000E4B2307AA042F4D86D1CEDB2707AA84287
:102F6000EDD870BD10B5847A50F82440007A02FB89
:102F7000001024F8103010BD2DE9FF4F81B09346AA
:102F8000DDE90EA94D4680465F1926E098F8090054
:102F9000A84220DD002D1EDBA5EB090054460BEBFB
:102FA0000406009015E000BF98F80800A0420EDD6E
:102FB000002C0CDB0098A4EB0A0200FB0B2102980A
:102FC000EAB230F81130E1B24046FFF7CBFF641CA3
:102FD00024B2A642E8DC6D1C2DB2AF42D6DC05B0AF
:102FE000BDE8F08F817A21B15FF0000150F8210037
:102FF00070470121FAE730B504460020039DA07216
:10300000E0600120A07421726272C4E9003520469C
:10301000FFF791FFA07A50B10020A0722046FFF781
:103020008AFFA07A28B10020A072204630BD01207E
:10303000F3E70120F8E7000010B5040007D10124F0
:1030400005E0FDF795F8006800B904488047204680
:1030500000F06CF80028F4D010BD00006D010008ED
:1030600002E008C8121F08C1002AFAD17047704751
:10307000002001E001C1121F002AFBD170470000AF
:10308000254B1021A3F58062202000F085F8234E07
:1030900006F1080770602248386000F5D470786047
:1030A000FDF72EFAFEF70CFDFEF764FAFEF7CAFAFA
:1030B000FEF70AFBFEF7E0FA1A48FEF7CDF8DFF854
:1030C00068A000254FF4005900246FF00A08202D55
:1030D00000DD45466420FDF70BF949465046FDF7F3
:1030E000F7F97068FEF7FEF9C4F1010002B257F873
:1030F00024002946FEF708FA727801217068FEF76D
:10310000D3FC3CB10320641C284424B205B2022C39
:10311000DDDBD9E70420F6E74406002000000020AC
:10312000C43200080402002000100140F0B50B304A
:10313000154D20F007010024144A0FE003688B426C
:103140000BD38B4205D95E1A43184768C3E9006761
:1031500000E04368136002C004E0021D106800280C
:10316000ECD12046002802D1286808B10020F0BD2B
:10317000064A07481060074A121A22F00702C0E9FF
:10318000002401202860D7E79C010020980100203E
:10319000BC1C0020B81E00202DE9F84380461D46C7
:1031A00016460F460420FFF7C1FF04461420FFF720
:1031B00043FF33463A4641460095FFF71CFF014660
:1031C00020462160BDE8F8832DE9F047002138480A
:1031D000384E394F41700C468946351D8046305D6A
:1031E000295D400040EA810101223846FDF774F96B
:1031F000305D002854D00020295D4000002951D0C6
:103200005FF0000140EA810100223846FDF764F9D1
:1032100088F80090305D295D400040EA810101227C
:103220003846FDF759F9305DC0B30020295D4000F4
:10323000A9B3002140EA810100223846FDF74CF98C
:103240002046FFF7D5FD012210213846FDF744F94D
:10325000002210213846FDF73FF9002208213846A8
:10326000FDF73AF9002000BF401C80B21428FAD3C1
:10327000012208213846FDF72FF998F80010491C63
:10328000C9B288F800101029C4D3641CE4B2042C1D
:10329000A5D3012188F80110BDE8F08704E005E01E
:1032A0000120A9E70121ADE70120BFE70121C1E726
:1032B00000000020BC3200080008014000010001AD
:1032C000000001010E000F000000000000000000DF
:1032D000100F100F100F100F100F100F0000000034
:1032E00000000000000000000000100F100F100F81
:1032F000100F100F100F100F100F100F100F0000F5
:10330000000000000000F006F006F006530D530D1B
:10331000F006530D530D00000000000000000000F7
:10332000F006530DF006530D530D530DF006530DDB
:10333000530D530D530D000000000000F006530D17
:10334000F006F006530D530D530DF006530D530DBB
:10335000530D530D00000000F006F006530D530D01
:10336000530D530DF006F006F006F006F0060000CF
:103370000000000000000000530D530D530D530DCD
:10338000530D530D530D530D0000000000000000BD
:103390000000F006F006F006F006100FF006F0064A
:1033A000530D530D0000000000000000530DF00607
:1033B000F006F006F006F006F006530D530D530D1F
:1033C000530D00000000530D530D100FF006F006D2
:1033D000F006F006F006530D530D530D00000000EB
:1033E0000000F006F006100F100F100F100F100F56
:1033F000100F100F100F0000000000000000F0067A
:10340000100F100F100F100F100F100F100F100FC4
:10341000100F000000000000F006F006100F100F63
:10342000100F100F100F100F100F100F00000000E2
:1034300000000000F006F006000000000000F006AA
:10344000F006F006F006000000000000000000009A
:1034500000000000000000000000F006F006F0068A
:10346000F006F00600000000000000001000100050
:1034700000000000000000000000100F100F100FEF
:10348000100F100F100F00000000000000000000DF
:103490000000000000000000100F100F100F100FB0
:1034A000100F100F100F100F100F100F0000000062
:1034B0000000000000000000F006F006F006530DCA
:1034C000530DF006530D530D0000000000000000E6
:1034D000000000000000F006530DF006530D530DE0
:1034E000530DF006530D530D530D530D0000000006
:1034F000000000000000F006530DF006F006530D2A
:10350000530D530DF006530D530D530D530D000085
:10351000000000000000F006F006530D530D530D9F
:10352000530DF006F006F006F006F006000000006D
:1035300000000000000000000000530D530D530D6B
:10354000530D530D530D530D530D0000000000009B
:1035500000000000F006F006F006F006100F100F55
:10356000F006F006F0060000000000000000000079
:10357000530D530DF006F006F006F006100F100F75
:10358000100FF006F006F006530D530D530D530DBA
:10359000530D530D530D530DF006F006100F530D40
:1035A000100F100F100FF006F006530D530D530DB2
:1035B000530D530D530D0000100F100F100F100F6F
:1035C000100F100F100F100F0000F006F006000093
:1035D000000000000000100F100F100F100F100F50
:1035E000100F100F100F100FF006F006F00600007D
:1035F00000000000100F100F100F100F100F100F11
:10360000100F100F100F100FF006F006F00600005C
:103610000000F006F006100F100F100F100F000042
:103620000000100F100F100FF006F006F00600005B
:103630000000F006F006F006F006000000000000B2
:10364000000000000000000000000000000000007A
:1036500000000000F006F006F006F0060000000092
:10366000000000000000000000000000000000005A
:103670008081828384858687070605040302010012
:1036800088898A8B8C8D8E8F0F0E0D0C0B0A090882
:1036900090919293949596971716151413121110F2
:1036A00098999A9B9C9D9E9F1F1E1D1C1B1A191862
:1036B00000000000000000000102030406070809E2
:1036C000E036000800000020AC01000050020008B5
:1036D000A8370008AC0100200C2100007030000861
:1036E00011E20113311F1B0861041A6D041A9504BD
:1036F0001AC1041A11041A3D041704030904120123
:10370000140202021640830440571D0201020340C6
:10371000031A1A0313B1021B08AD041AA9041AD51F
:1037200004296F821084A24A04130A0632022A4036
:10373000201C0902435B111CC032091F1B01020B34
:1037400013052416100105240110090104240202A6
:10375000052406170107058203081C10090491328D
:103760000A1D07050102432C070581070938442A71
:1037700040072A8107112B0907440A2204440A162C
:10378000FF44131D1D14088D1C1B08F908411AC99C
:103790000C1A4B041A5F04C11A05201AF9141A11E5
:0837A00008DAED1C81000000B5
:04000005080000ED02
:00000001FF
